{
  "_format": "hh-sol-artifact-1",
  "contractName": "YamswapRouter01",
  "sourceName": "contracts/YamswapRouter01.sol",
  "abi": [
    {
      "inputs": [
        {
          "internalType": "address",
          "name": "_factory",
          "type": "address"
        },
        {
          "internalType": "address",
          "name": "_WETH",
          "type": "address"
        }
      ],
      "stateMutability": "nonpayable",
      "type": "constructor"
    },
    {
      "inputs": [],
      "name": "WETH",
      "outputs": [
        {
          "internalType": "address",
          "name": "",
          "type": "address"
        }
      ],
      "stateMutability": "view",
      "type": "function"
    },
    {
      "inputs": [
        {
          "internalType": "address",
          "name": "tokenA",
          "type": "address"
        },
        {
          "internalType": "address",
          "name": "tokenB",
          "type": "address"
        },
        {
          "internalType": "uint256",
          "name": "amountADesired",
          "type": "uint256"
        },
        {
          "internalType": "uint256",
          "name": "amountBDesired",
          "type": "uint256"
        },
        {
          "internalType": "uint256",
          "name": "amountAMin",
          "type": "uint256"
        },
        {
          "internalType": "uint256",
          "name": "amountBMin",
          "type": "uint256"
        },
        {
          "internalType": "address",
          "name": "to",
          "type": "address"
        },
        {
          "internalType": "uint256",
          "name": "deadline",
          "type": "uint256"
        }
      ],
      "name": "addLiquidity",
      "outputs": [
        {
          "internalType": "uint256",
          "name": "amountA",
          "type": "uint256"
        },
        {
          "internalType": "uint256",
          "name": "amountB",
          "type": "uint256"
        },
        {
          "internalType": "uint256",
          "name": "liquidity",
          "type": "uint256"
        }
      ],
      "stateMutability": "nonpayable",
      "type": "function"
    },
    {
      "inputs": [
        {
          "internalType": "address",
          "name": "token",
          "type": "address"
        },
        {
          "internalType": "uint256",
          "name": "amountTokenDesired",
          "type": "uint256"
        },
        {
          "internalType": "uint256",
          "name": "amountTokenMin",
          "type": "uint256"
        },
        {
          "internalType": "uint256",
          "name": "amountETHMin",
          "type": "uint256"
        },
        {
          "internalType": "address",
          "name": "to",
          "type": "address"
        },
        {
          "internalType": "uint256",
          "name": "deadline",
          "type": "uint256"
        }
      ],
      "name": "addLiquidityETH",
      "outputs": [
        {
          "internalType": "uint256",
          "name": "amountToken",
          "type": "uint256"
        },
        {
          "internalType": "uint256",
          "name": "amountETH",
          "type": "uint256"
        },
        {
          "internalType": "uint256",
          "name": "liquidity",
          "type": "uint256"
        }
      ],
      "stateMutability": "payable",
      "type": "function"
    },
    {
      "inputs": [],
      "name": "factory",
      "outputs": [
        {
          "internalType": "address",
          "name": "",
          "type": "address"
        }
      ],
      "stateMutability": "view",
      "type": "function"
    },
    {
      "inputs": [
        {
          "internalType": "uint256",
          "name": "amountOut",
          "type": "uint256"
        },
        {
          "internalType": "uint256",
          "name": "reserveIn",
          "type": "uint256"
        },
        {
          "internalType": "uint256",
          "name": "reserveOut",
          "type": "uint256"
        }
      ],
      "name": "getAmountIn",
      "outputs": [
        {
          "internalType": "uint256",
          "name": "amountIn",
          "type": "uint256"
        }
      ],
      "stateMutability": "pure",
      "type": "function"
    },
    {
      "inputs": [
        {
          "internalType": "uint256",
          "name": "amountIn",
          "type": "uint256"
        },
        {
          "internalType": "uint256",
          "name": "reserveIn",
          "type": "uint256"
        },
        {
          "internalType": "uint256",
          "name": "reserveOut",
          "type": "uint256"
        }
      ],
      "name": "getAmountOut",
      "outputs": [
        {
          "internalType": "uint256",
          "name": "amountOut",
          "type": "uint256"
        }
      ],
      "stateMutability": "pure",
      "type": "function"
    },
    {
      "inputs": [
        {
          "internalType": "uint256",
          "name": "amountOut",
          "type": "uint256"
        },
        {
          "internalType": "address[]",
          "name": "path",
          "type": "address[]"
        }
      ],
      "name": "getAmountsIn",
      "outputs": [
        {
          "internalType": "uint256[]",
          "name": "amounts",
          "type": "uint256[]"
        }
      ],
      "stateMutability": "view",
      "type": "function"
    },
    {
      "inputs": [
        {
          "internalType": "uint256",
          "name": "amountIn",
          "type": "uint256"
        },
        {
          "internalType": "address[]",
          "name": "path",
          "type": "address[]"
        }
      ],
      "name": "getAmountsOut",
      "outputs": [
        {
          "internalType": "uint256[]",
          "name": "amounts",
          "type": "uint256[]"
        }
      ],
      "stateMutability": "view",
      "type": "function"
    },
    {
      "inputs": [
        {
          "internalType": "uint256",
          "name": "amountA",
          "type": "uint256"
        },
        {
          "internalType": "uint256",
          "name": "reserveA",
          "type": "uint256"
        },
        {
          "internalType": "uint256",
          "name": "reserveB",
          "type": "uint256"
        }
      ],
      "name": "quote",
      "outputs": [
        {
          "internalType": "uint256",
          "name": "amountB",
          "type": "uint256"
        }
      ],
      "stateMutability": "pure",
      "type": "function"
    },
    {
      "inputs": [
        {
          "internalType": "address",
          "name": "tokenA",
          "type": "address"
        },
        {
          "internalType": "address",
          "name": "tokenB",
          "type": "address"
        },
        {
          "internalType": "uint256",
          "name": "liquidity",
          "type": "uint256"
        },
        {
          "internalType": "uint256",
          "name": "amountAMin",
          "type": "uint256"
        },
        {
          "internalType": "uint256",
          "name": "amountBMin",
          "type": "uint256"
        },
        {
          "internalType": "address",
          "name": "to",
          "type": "address"
        },
        {
          "internalType": "uint256",
          "name": "deadline",
          "type": "uint256"
        }
      ],
      "name": "removeLiquidity",
      "outputs": [
        {
          "internalType": "uint256",
          "name": "amountA",
          "type": "uint256"
        },
        {
          "internalType": "uint256",
          "name": "amountB",
          "type": "uint256"
        }
      ],
      "stateMutability": "nonpayable",
      "type": "function"
    },
    {
      "inputs": [
        {
          "internalType": "address",
          "name": "token",
          "type": "address"
        },
        {
          "internalType": "uint256",
          "name": "liquidity",
          "type": "uint256"
        },
        {
          "internalType": "uint256",
          "name": "amountTokenMin",
          "type": "uint256"
        },
        {
          "internalType": "uint256",
          "name": "amountETHMin",
          "type": "uint256"
        },
        {
          "internalType": "address",
          "name": "to",
          "type": "address"
        },
        {
          "internalType": "uint256",
          "name": "deadline",
          "type": "uint256"
        }
      ],
      "name": "removeLiquidityETH",
      "outputs": [
        {
          "internalType": "uint256",
          "name": "amountToken",
          "type": "uint256"
        },
        {
          "internalType": "uint256",
          "name": "amountETH",
          "type": "uint256"
        }
      ],
      "stateMutability": "nonpayable",
      "type": "function"
    },
    {
      "inputs": [
        {
          "internalType": "address",
          "name": "token",
          "type": "address"
        },
        {
          "internalType": "uint256",
          "name": "liquidity",
          "type": "uint256"
        },
        {
          "internalType": "uint256",
          "name": "amountTokenMin",
          "type": "uint256"
        },
        {
          "internalType": "uint256",
          "name": "amountETHMin",
          "type": "uint256"
        },
        {
          "internalType": "address",
          "name": "to",
          "type": "address"
        },
        {
          "internalType": "uint256",
          "name": "deadline",
          "type": "uint256"
        },
        {
          "internalType": "bool",
          "name": "approveMax",
          "type": "bool"
        },
        {
          "internalType": "uint8",
          "name": "v",
          "type": "uint8"
        },
        {
          "internalType": "bytes32",
          "name": "r",
          "type": "bytes32"
        },
        {
          "internalType": "bytes32",
          "name": "s",
          "type": "bytes32"
        }
      ],
      "name": "removeLiquidityETHWithPermit",
      "outputs": [
        {
          "internalType": "uint256",
          "name": "amountToken",
          "type": "uint256"
        },
        {
          "internalType": "uint256",
          "name": "amountETH",
          "type": "uint256"
        }
      ],
      "stateMutability": "nonpayable",
      "type": "function"
    },
    {
      "inputs": [
        {
          "internalType": "address",
          "name": "tokenA",
          "type": "address"
        },
        {
          "internalType": "address",
          "name": "tokenB",
          "type": "address"
        },
        {
          "internalType": "uint256",
          "name": "liquidity",
          "type": "uint256"
        },
        {
          "internalType": "uint256",
          "name": "amountAMin",
          "type": "uint256"
        },
        {
          "internalType": "uint256",
          "name": "amountBMin",
          "type": "uint256"
        },
        {
          "internalType": "address",
          "name": "to",
          "type": "address"
        },
        {
          "internalType": "uint256",
          "name": "deadline",
          "type": "uint256"
        },
        {
          "internalType": "bool",
          "name": "approveMax",
          "type": "bool"
        },
        {
          "internalType": "uint8",
          "name": "v",
          "type": "uint8"
        },
        {
          "internalType": "bytes32",
          "name": "r",
          "type": "bytes32"
        },
        {
          "internalType": "bytes32",
          "name": "s",
          "type": "bytes32"
        }
      ],
      "name": "removeLiquidityWithPermit",
      "outputs": [
        {
          "internalType": "uint256",
          "name": "amountA",
          "type": "uint256"
        },
        {
          "internalType": "uint256",
          "name": "amountB",
          "type": "uint256"
        }
      ],
      "stateMutability": "nonpayable",
      "type": "function"
    },
    {
      "inputs": [
        {
          "internalType": "uint256",
          "name": "amountOut",
          "type": "uint256"
        },
        {
          "internalType": "address[]",
          "name": "path",
          "type": "address[]"
        },
        {
          "internalType": "address",
          "name": "to",
          "type": "address"
        },
        {
          "internalType": "uint256",
          "name": "deadline",
          "type": "uint256"
        }
      ],
      "name": "swapETHForExactTokens",
      "outputs": [
        {
          "internalType": "uint256[]",
          "name": "amounts",
          "type": "uint256[]"
        }
      ],
      "stateMutability": "payable",
      "type": "function"
    },
    {
      "inputs": [
        {
          "internalType": "uint256",
          "name": "amountOutMin",
          "type": "uint256"
        },
        {
          "internalType": "address[]",
          "name": "path",
          "type": "address[]"
        },
        {
          "internalType": "address",
          "name": "to",
          "type": "address"
        },
        {
          "internalType": "uint256",
          "name": "deadline",
          "type": "uint256"
        }
      ],
      "name": "swapExactETHForTokens",
      "outputs": [
        {
          "internalType": "uint256[]",
          "name": "amounts",
          "type": "uint256[]"
        }
      ],
      "stateMutability": "payable",
      "type": "function"
    },
    {
      "inputs": [
        {
          "internalType": "uint256",
          "name": "amountIn",
          "type": "uint256"
        },
        {
          "internalType": "uint256",
          "name": "amountOutMin",
          "type": "uint256"
        },
        {
          "internalType": "address[]",
          "name": "path",
          "type": "address[]"
        },
        {
          "internalType": "address",
          "name": "to",
          "type": "address"
        },
        {
          "internalType": "uint256",
          "name": "deadline",
          "type": "uint256"
        }
      ],
      "name": "swapExactTokensForETH",
      "outputs": [
        {
          "internalType": "uint256[]",
          "name": "amounts",
          "type": "uint256[]"
        }
      ],
      "stateMutability": "nonpayable",
      "type": "function"
    },
    {
      "inputs": [
        {
          "internalType": "uint256",
          "name": "amountIn",
          "type": "uint256"
        },
        {
          "internalType": "uint256",
          "name": "amountOutMin",
          "type": "uint256"
        },
        {
          "internalType": "address[]",
          "name": "path",
          "type": "address[]"
        },
        {
          "internalType": "address",
          "name": "to",
          "type": "address"
        },
        {
          "internalType": "uint256",
          "name": "deadline",
          "type": "uint256"
        }
      ],
      "name": "swapExactTokensForTokens",
      "outputs": [
        {
          "internalType": "uint256[]",
          "name": "amounts",
          "type": "uint256[]"
        }
      ],
      "stateMutability": "nonpayable",
      "type": "function"
    },
    {
      "inputs": [
        {
          "internalType": "uint256",
          "name": "amountOut",
          "type": "uint256"
        },
        {
          "internalType": "uint256",
          "name": "amountInMax",
          "type": "uint256"
        },
        {
          "internalType": "address[]",
          "name": "path",
          "type": "address[]"
        },
        {
          "internalType": "address",
          "name": "to",
          "type": "address"
        },
        {
          "internalType": "uint256",
          "name": "deadline",
          "type": "uint256"
        }
      ],
      "name": "swapTokensForExactETH",
      "outputs": [
        {
          "internalType": "uint256[]",
          "name": "amounts",
          "type": "uint256[]"
        }
      ],
      "stateMutability": "nonpayable",
      "type": "function"
    },
    {
      "inputs": [
        {
          "internalType": "uint256",
          "name": "amountOut",
          "type": "uint256"
        },
        {
          "internalType": "uint256",
          "name": "amountInMax",
          "type": "uint256"
        },
        {
          "internalType": "address[]",
          "name": "path",
          "type": "address[]"
        },
        {
          "internalType": "address",
          "name": "to",
          "type": "address"
        },
        {
          "internalType": "uint256",
          "name": "deadline",
          "type": "uint256"
        }
      ],
      "name": "swapTokensForExactTokens",
      "outputs": [
        {
          "internalType": "uint256[]",
          "name": "amounts",
          "type": "uint256[]"
        }
      ],
      "stateMutability": "nonpayable",
      "type": "function"
    },
    {
      "stateMutability": "payable",
      "type": "receive"
    }
  ],
  "bytecode": "0x60c06040523480156200001157600080fd5b5060405162005f0138038062005f018339818101604052810190620000379190620000c4565b8173ffffffffffffffffffffffffffffffffffffffff1660808173ffffffffffffffffffffffffffffffffffffffff1660601b815250508073ffffffffffffffffffffffffffffffffffffffff1660a08173ffffffffffffffffffffffffffffffffffffffff1660601b81525050505062000153565b600081519050620000be8162000139565b92915050565b60008060408385031215620000d857600080fd5b6000620000e885828601620000ad565b9250506020620000fb85828601620000ad565b9150509250929050565b6000620001128262000119565b9050919050565b600073ffffffffffffffffffffffffffffffffffffffff82169050919050565b620001448162000105565b81146200015057600080fd5b50565b60805160601c60a05160601c615c5c620002a56000396000818161011f01528181610637015281816106750152818161077201528181610b07015281816110bb01528181611444015281816115c40152818161179e0152818161186001528181611da3015281816120e201528181612369015281816123c2015281816123f601528181612477015281816126560152818161282401526128e601526000818161085f015281816109b001528181610c4601528181610c7e01528181610dc201528181610f13015281816111a8015281816112ed015281816116a30152818161189f01528181611afc01528181611c4101528181611e290152818161205f01528181612088015281816120c00152818161223d015281816123a00152818161273501528181612925015281816134b10152818161352b01528181613ad801528181613b9f0152613c540152615c5c6000f3fe6080604052600436106101185760003560e01c80638803dbee116100a0578063d06ca61f11610064578063d06ca61f146104ce578063ded9382a1461050b578063e8e3370014610549578063f305d71914610588578063fb3bdb41146105ba576101a1565b80638803dbee146103c0578063ad5c4648146103fd578063ad615dec14610428578063baa2abde14610465578063c45a0155146104a3576101a1565b80632195995c116100e75780632195995c1461029b57806338ed1739146102d95780634a25d94a146103165780637ff36ab51461035357806385f8c25914610383576101a1565b806302751cec146101a6578063054d50d4146101e457806318cbafe5146102215780631f00ca741461025e576101a1565b366101a1577f000000000000000000000000000000000000000000000000000000000000000073ffffffffffffffffffffffffffffffffffffffff163373ffffffffffffffffffffffffffffffffffffffff161461019f577f4e487b7100000000000000000000000000000000000000000000000000000000600052600160045260246000fd5b005b600080fd5b3480156101b257600080fd5b506101cd60048036038101906101c89190614536565b6105ea565b6040516101db929190615199565b60405180910390f35b3480156101f057600080fd5b5061020b600480360381019061020691906148dd565b610714565b604051610218919061517e565b60405180910390f35b34801561022d57600080fd5b506102486004803603810190610243919061484b565b61072a565b6040516102559190614efc565b60405180910390f35b34801561026a57600080fd5b50610285600480360381019061028091906147bb565b610c3f565b6040516102929190614efc565b60405180910390f35b3480156102a757600080fd5b506102c260048036038101906102bd9190614394565b610c74565b6040516102d0929190615199565b60405180910390f35b3480156102e557600080fd5b5061030060048036038101906102fb919061484b565b610d77565b60405161030d9190614efc565b60405180910390f35b34801561032257600080fd5b5061033d6004803603810190610338919061484b565b611073565b60405161034a9190614efc565b60405180910390f35b61036d6004803603810190610368919061473b565b61157c565b60405161037a9190614efc565b60405180910390f35b34801561038f57600080fd5b506103aa60048036038101906103a591906148dd565b611a9b565b6040516103b7919061517e565b60405180910390f35b3480156103cc57600080fd5b506103e760048036038101906103e2919061484b565b611ab1565b6040516103f49190614efc565b60405180910390f35b34801561040957600080fd5b50610412611da1565b60405161041f9190614de9565b60405180910390f35b34801561043457600080fd5b5061044f600480360381019061044a91906148dd565b611dc5565b60405161045c919061517e565b60405180910390f35b34801561047157600080fd5b5061048c600480360381019061048791906142f6565b611ddb565b60405161049a929190615199565b60405180910390f35b3480156104af57600080fd5b506104b861205d565b6040516104c59190614de9565b60405180910390f35b3480156104da57600080fd5b506104f560048036038101906104f091906147bb565b612081565b6040516105029190614efc565b60405180910390f35b34801561051757600080fd5b50610532600480360381019061052d91906145bf565b6120b6565b604051610540929190615199565b60405180910390f35b34801561055557600080fd5b50610570600480360381019061056b9190614484565b6121d7565b60405161057f9392919061520e565b60405180910390f35b6105a2600480360381019061059d9190614536565b61231a565b6040516105b19392919061520e565b60405180910390f35b6105d460048036038101906105cf919061473b565b61260e565b6040516105e19190614efc565b60405180910390f35b6000808242811015610631576040517f08c379a000000000000000000000000000000000000000000000000000000000815260040161062890614f5e565b60405180910390fd5b610660897f00000000000000000000000000000000000000000000000000000000000000008a8a8a308a611ddb565b8093508194505050610673898685612bc1565b7f000000000000000000000000000000000000000000000000000000000000000073ffffffffffffffffffffffffffffffffffffffff16632e1a7d4d836040518263ffffffff1660e01b81526004016106cc919061517e565b600060405180830381600087803b1580156106e657600080fd5b505af11580156106fa573d6000803e3d6000fd5b505050506107088583612cf7565b50965096945050505050565b6000610721848484612e1d565b90509392505050565b60608142811015610770576040517f08c379a000000000000000000000000000000000000000000000000000000000815260040161076790614f5e565b60405180910390fd5b7f000000000000000000000000000000000000000000000000000000000000000073ffffffffffffffffffffffffffffffffffffffff1686866001898990506107b991906153f3565b8181106107ef577f4e487b7100000000000000000000000000000000000000000000000000000000600052603260045260246000fd5b905060200201602081019061080491906142a4565b73ffffffffffffffffffffffffffffffffffffffff161461085a576040517f08c379a00000000000000000000000000000000000000000000000000000000081526004016108519061503e565b60405180910390fd5b6108c67f000000000000000000000000000000000000000000000000000000000000000089888880806020026020016040519081016040528093929190818152602001838360200280828437600081840152601f19601f82011690508083019250505050505050612f23565b91508682600184516108d891906153f3565b8151811061090f577f4e487b7100000000000000000000000000000000000000000000000000000000600052603260045260246000fd5b60200260200101511015610958576040517f08c379a000000000000000000000000000000000000000000000000000000000815260040161094f906150fe565b60405180910390fd5b610ab986866000818110610995577f4e487b7100000000000000000000000000000000000000000000000000000000600052603260045260246000fd5b90506020020160208101906109aa91906142a4565b33610a727f00000000000000000000000000000000000000000000000000000000000000008a8a6000818110610a09577f4e487b7100000000000000000000000000000000000000000000000000000000600052603260045260246000fd5b9050602002016020810190610a1e91906142a4565b8b8b6001818110610a58577f4e487b7100000000000000000000000000000000000000000000000000000000600052603260045260246000fd5b9050602002016020810190610a6d91906142a4565b613192565b85600081518110610aac577f4e487b7100000000000000000000000000000000000000000000000000000000600052603260045260246000fd5b6020026020010151613204565b610b0582878780806020026020016040519081016040528093929190818152602001838360200280828437600081840152601f19601f820116905080830192505050505050503061333d565b7f000000000000000000000000000000000000000000000000000000000000000073ffffffffffffffffffffffffffffffffffffffff16632e1a7d4d8360018551610b5091906153f3565b81518110610b87577f4e487b7100000000000000000000000000000000000000000000000000000000600052603260045260246000fd5b60200260200101516040518263ffffffff1660e01b8152600401610bab919061517e565b600060405180830381600087803b158015610bc557600080fd5b505af1158015610bd9573d6000803e3d6000fd5b50505050610c34848360018551610bf091906153f3565b81518110610c27577f4e487b7100000000000000000000000000000000000000000000000000000000600052603260045260246000fd5b6020026020010151612cf7565b509695505050505050565b6060610c6c7f00000000000000000000000000000000000000000000000000000000000000008484613654565b905092915050565b6000806000610ca47f00000000000000000000000000000000000000000000000000000000000000008f8f613192565b9050600087610cb3578c610cd5565b7fffffffffffffffffffffffffffffffffffffffffffffffffffffffffffffffff5b90508173ffffffffffffffffffffffffffffffffffffffff1663d505accf3330848d8c8c8c6040518863ffffffff1660e01b8152600401610d1c9796959493929190614e64565b600060405180830381600087803b158015610d3657600080fd5b505af1158015610d4a573d6000803e3d6000fd5b50505050610d5d8f8f8f8f8f8f8f611ddb565b809450819550505050509b509b9950505050505050505050565b60608142811015610dbd576040517f08c379a0000000000000000000000000000000000000000000000000000000008152600401610db490614f5e565b60405180910390fd5b610e297f000000000000000000000000000000000000000000000000000000000000000089888880806020026020016040519081016040528093929190818152602001838360200280828437600081840152601f19601f82011690508083019250505050505050612f23565b9150868260018451610e3b91906153f3565b81518110610e72577f4e487b7100000000000000000000000000000000000000000000000000000000600052603260045260246000fd5b60200260200101511015610ebb576040517f08c379a0000000000000000000000000000000000000000000000000000000008152600401610eb2906150fe565b60405180910390fd5b61101c86866000818110610ef8577f4e487b7100000000000000000000000000000000000000000000000000000000600052603260045260246000fd5b9050602002016020810190610f0d91906142a4565b33610fd57f00000000000000000000000000000000000000000000000000000000000000008a8a6000818110610f6c577f4e487b7100000000000000000000000000000000000000000000000000000000600052603260045260246000fd5b9050602002016020810190610f8191906142a4565b8b8b6001818110610fbb577f4e487b7100000000000000000000000000000000000000000000000000000000600052603260045260246000fd5b9050602002016020810190610fd091906142a4565b613192565b8560008151811061100f577f4e487b7100000000000000000000000000000000000000000000000000000000600052603260045260246000fd5b6020026020010151613204565b61106882878780806020026020016040519081016040528093929190818152602001838360200280828437600081840152601f19601f820116905080830192505050505050508661333d565b509695505050505050565b606081428110156110b9576040517f08c379a00000000000000000000000000000000000000000000000000000000081526004016110b090614f5e565b60405180910390fd5b7f000000000000000000000000000000000000000000000000000000000000000073ffffffffffffffffffffffffffffffffffffffff16868660018989905061110291906153f3565b818110611138577f4e487b7100000000000000000000000000000000000000000000000000000000600052603260045260246000fd5b905060200201602081019061114d91906142a4565b73ffffffffffffffffffffffffffffffffffffffff16146111a3576040517f08c379a000000000000000000000000000000000000000000000000000000000815260040161119a9061503e565b60405180910390fd5b61120f7f000000000000000000000000000000000000000000000000000000000000000089888880806020026020016040519081016040528093929190818152602001838360200280828437600081840152601f19601f82011690508083019250505050505050613654565b9150868260008151811061124c577f4e487b7100000000000000000000000000000000000000000000000000000000600052603260045260246000fd5b60200260200101511115611295576040517f08c379a000000000000000000000000000000000000000000000000000000000815260040161128c906150be565b60405180910390fd5b6113f6868660008181106112d2577f4e487b7100000000000000000000000000000000000000000000000000000000600052603260045260246000fd5b90506020020160208101906112e791906142a4565b336113af7f00000000000000000000000000000000000000000000000000000000000000008a8a6000818110611346577f4e487b7100000000000000000000000000000000000000000000000000000000600052603260045260246000fd5b905060200201602081019061135b91906142a4565b8b8b6001818110611395577f4e487b7100000000000000000000000000000000000000000000000000000000600052603260045260246000fd5b90506020020160208101906113aa91906142a4565b613192565b856000815181106113e9577f4e487b7100000000000000000000000000000000000000000000000000000000600052603260045260246000fd5b6020026020010151613204565b61144282878780806020026020016040519081016040528093929190818152602001838360200280828437600081840152601f19601f820116905080830192505050505050503061333d565b7f000000000000000000000000000000000000000000000000000000000000000073ffffffffffffffffffffffffffffffffffffffff16632e1a7d4d836001855161148d91906153f3565b815181106114c4577f4e487b7100000000000000000000000000000000000000000000000000000000600052603260045260246000fd5b60200260200101516040518263ffffffff1660e01b81526004016114e8919061517e565b600060405180830381600087803b15801561150257600080fd5b505af1158015611516573d6000803e3d6000fd5b5050505061157184836001855161152d91906153f3565b81518110611564577f4e487b7100000000000000000000000000000000000000000000000000000000600052603260045260246000fd5b6020026020010151612cf7565b509695505050505050565b606081428110156115c2576040517f08c379a00000000000000000000000000000000000000000000000000000000081526004016115b990614f5e565b60405180910390fd5b7f000000000000000000000000000000000000000000000000000000000000000073ffffffffffffffffffffffffffffffffffffffff1686866000818110611633577f4e487b7100000000000000000000000000000000000000000000000000000000600052603260045260246000fd5b905060200201602081019061164891906142a4565b73ffffffffffffffffffffffffffffffffffffffff161461169e576040517f08c379a00000000000000000000000000000000000000000000000000000000081526004016116959061503e565b60405180910390fd5b61170a7f000000000000000000000000000000000000000000000000000000000000000034888880806020026020016040519081016040528093929190818152602001838360200280828437600081840152601f19601f82011690508083019250505050505050612f23565b915086826001845161171c91906153f3565b81518110611753577f4e487b7100000000000000000000000000000000000000000000000000000000600052603260045260246000fd5b6020026020010151101561179c576040517f08c379a0000000000000000000000000000000000000000000000000000000008152600401611793906150fe565b60405180910390fd5b7f000000000000000000000000000000000000000000000000000000000000000073ffffffffffffffffffffffffffffffffffffffff1663d0e30db083600081518110611812577f4e487b7100000000000000000000000000000000000000000000000000000000600052603260045260246000fd5b60200260200101516040518263ffffffff1660e01b81526004016000604051808303818588803b15801561184557600080fd5b505af1158015611859573d6000803e3d6000fd5b50505050507f000000000000000000000000000000000000000000000000000000000000000073ffffffffffffffffffffffffffffffffffffffff1663a9059cbb6119617f0000000000000000000000000000000000000000000000000000000000000000898960008181106118f8577f4e487b7100000000000000000000000000000000000000000000000000000000600052603260045260246000fd5b905060200201602081019061190d91906142a4565b8a8a6001818110611947577f4e487b7100000000000000000000000000000000000000000000000000000000600052603260045260246000fd5b905060200201602081019061195c91906142a4565b613192565b8460008151811061199b577f4e487b7100000000000000000000000000000000000000000000000000000000600052603260045260246000fd5b60200260200101516040518363ffffffff1660e01b81526004016119c0929190614ed3565b602060405180830381600087803b1580156119da57600080fd5b505af11580156119ee573d6000803e3d6000fd5b505050506040513d601f19601f82011682018060405250810190611a12919061469a565b611a45577f4e487b7100000000000000000000000000000000000000000000000000000000600052600160045260246000fd5b611a9182878780806020026020016040519081016040528093929190818152602001838360200280828437600081840152601f19601f820116905080830192505050505050508661333d565b5095945050505050565b6000611aa8848484612e1d565b90509392505050565b60608142811015611af7576040517f08c379a0000000000000000000000000000000000000000000000000000000008152600401611aee90614f5e565b60405180910390fd5b611b637f000000000000000000000000000000000000000000000000000000000000000089888880806020026020016040519081016040528093929190818152602001838360200280828437600081840152601f19601f82011690508083019250505050505050613654565b91508682600081518110611ba0577f4e487b7100000000000000000000000000000000000000000000000000000000600052603260045260246000fd5b60200260200101511115611be9576040517f08c379a0000000000000000000000000000000000000000000000000000000008152600401611be0906150be565b60405180910390fd5b611d4a86866000818110611c26577f4e487b7100000000000000000000000000000000000000000000000000000000600052603260045260246000fd5b9050602002016020810190611c3b91906142a4565b33611d037f00000000000000000000000000000000000000000000000000000000000000008a8a6000818110611c9a577f4e487b7100000000000000000000000000000000000000000000000000000000600052603260045260246000fd5b9050602002016020810190611caf91906142a4565b8b8b6001818110611ce9577f4e487b7100000000000000000000000000000000000000000000000000000000600052603260045260246000fd5b9050602002016020810190611cfe91906142a4565b613192565b85600081518110611d3d577f4e487b7100000000000000000000000000000000000000000000000000000000600052603260045260246000fd5b6020026020010151613204565b611d9682878780806020026020016040519081016040528093929190818152602001838360200280828437600081840152601f19601f820116905080830192505050505050508661333d565b509695505050505050565b7f000000000000000000000000000000000000000000000000000000000000000081565b6000611dd28484846138d3565b90509392505050565b6000808242811015611e22576040517f08c379a0000000000000000000000000000000000000000000000000000000008152600401611e1990614f5e565b60405180910390fd5b6000611e4f7f00000000000000000000000000000000000000000000000000000000000000008c8c613192565b90508073ffffffffffffffffffffffffffffffffffffffff166323b872dd33838c6040518463ffffffff1660e01b8152600401611e8e93929190614e2d565b602060405180830381600087803b158015611ea857600080fd5b505af1158015611ebc573d6000803e3d6000fd5b505050506040513d601f19601f82011682018060405250810190611ee0919061469a565b506000808273ffffffffffffffffffffffffffffffffffffffff166389afcb44896040518263ffffffff1660e01b8152600401611f1d9190614de9565b6040805180830381600087803b158015611f3657600080fd5b505af1158015611f4a573d6000803e3d6000fd5b505050506040513d601f19601f82011682018060405250810190611f6e919061480f565b915091506000611f7e8e8e61398d565b5090508073ffffffffffffffffffffffffffffffffffffffff168e73ffffffffffffffffffffffffffffffffffffffff1614611fbb578183611fbe565b82825b80975081985050508a871015612009576040517f08c379a0000000000000000000000000000000000000000000000000000000008152600401612000906150de565b60405180910390fd5b8986101561204c576040517f08c379a00000000000000000000000000000000000000000000000000000000081526004016120439061501e565b60405180910390fd5b505050505097509795505050505050565b7f000000000000000000000000000000000000000000000000000000000000000081565b60606120ae7f00000000000000000000000000000000000000000000000000000000000000008484612f23565b905092915050565b60008060006121067f00000000000000000000000000000000000000000000000000000000000000008e7f0000000000000000000000000000000000000000000000000000000000000000613192565b9050600087612115578c612137565b7fffffffffffffffffffffffffffffffffffffffffffffffffffffffffffffffff5b90508173ffffffffffffffffffffffffffffffffffffffff1663d505accf3330848d8c8c8c6040518863ffffffff1660e01b815260040161217e9796959493929190614e64565b600060405180830381600087803b15801561219857600080fd5b505af11580156121ac573d6000803e3d6000fd5b505050506121be8e8e8e8e8e8e6105ea565b809450819550505050509a509a98505050505050505050565b60008060008342811015612220576040517f08c379a000000000000000000000000000000000000000000000000000000000815260040161221790614f5e565b60405180910390fd5b61222e8c8c8c8c8c8c613abb565b809450819550505060006122637f00000000000000000000000000000000000000000000000000000000000000008e8e613192565b90506122718d338388613204565b61227d8c338387613204565b8073ffffffffffffffffffffffffffffffffffffffff16636a627842886040518263ffffffff1660e01b81526004016122b69190614de9565b602060405180830381600087803b1580156122d057600080fd5b505af11580156122e4573d6000803e3d6000fd5b505050506040513d601f19601f820116820180604052508101906123089190614712565b92505050985098509895505050505050565b60008060008342811015612363576040517f08c379a000000000000000000000000000000000000000000000000000000000815260040161235a90614f5e565b60405180910390fd5b6123918a7f00000000000000000000000000000000000000000000000000000000000000008b348c8c613abb565b809450819550505060006123e67f00000000000000000000000000000000000000000000000000000000000000008c7f0000000000000000000000000000000000000000000000000000000000000000613192565b90506123f48b338388613204565b7f000000000000000000000000000000000000000000000000000000000000000073ffffffffffffffffffffffffffffffffffffffff1663d0e30db0856040518263ffffffff1660e01b81526004016000604051808303818588803b15801561245c57600080fd5b505af1158015612470573d6000803e3d6000fd5b50505050507f000000000000000000000000000000000000000000000000000000000000000073ffffffffffffffffffffffffffffffffffffffff1663a9059cbb82866040518363ffffffff1660e01b81526004016124d0929190614ed3565b602060405180830381600087803b1580156124ea57600080fd5b505af11580156124fe573d6000803e3d6000fd5b505050506040513d601f19601f82011682018060405250810190612522919061469a565b612555577f4e487b7100000000000000000000000000000000000000000000000000000000600052600160045260246000fd5b8073ffffffffffffffffffffffffffffffffffffffff16636a627842886040518263ffffffff1660e01b815260040161258e9190614de9565b602060405180830381600087803b1580156125a857600080fd5b505af11580156125bc573d6000803e3d6000fd5b505050506040513d601f19601f820116820180604052508101906125e09190614712565b925083341115612600576125ff3385346125fa91906153f3565b612cf7565b5b505096509650969350505050565b60608142811015612654576040517f08c379a000000000000000000000000000000000000000000000000000000000815260040161264b90614f5e565b60405180910390fd5b7f000000000000000000000000000000000000000000000000000000000000000073ffffffffffffffffffffffffffffffffffffffff16868660008181106126c5577f4e487b7100000000000000000000000000000000000000000000000000000000600052603260045260246000fd5b90506020020160208101906126da91906142a4565b73ffffffffffffffffffffffffffffffffffffffff1614612730576040517f08c379a00000000000000000000000000000000000000000000000000000000081526004016127279061503e565b60405180910390fd5b61279c7f000000000000000000000000000000000000000000000000000000000000000088888880806020026020016040519081016040528093929190818152602001838360200280828437600081840152601f19601f82011690508083019250505050505050613654565b915034826000815181106127d9577f4e487b7100000000000000000000000000000000000000000000000000000000600052603260045260246000fd5b60200260200101511115612822576040517f08c379a0000000000000000000000000000000000000000000000000000000008152600401612819906150be565b60405180910390fd5b7f000000000000000000000000000000000000000000000000000000000000000073ffffffffffffffffffffffffffffffffffffffff1663d0e30db083600081518110612898577f4e487b7100000000000000000000000000000000000000000000000000000000600052603260045260246000fd5b60200260200101516040518263ffffffff1660e01b81526004016000604051808303818588803b1580156128cb57600080fd5b505af11580156128df573d6000803e3d6000fd5b50505050507f000000000000000000000000000000000000000000000000000000000000000073ffffffffffffffffffffffffffffffffffffffff1663a9059cbb6129e77f00000000000000000000000000000000000000000000000000000000000000008989600081811061297e577f4e487b7100000000000000000000000000000000000000000000000000000000600052603260045260246000fd5b905060200201602081019061299391906142a4565b8a8a60018181106129cd577f4e487b7100000000000000000000000000000000000000000000000000000000600052603260045260246000fd5b90506020020160208101906129e291906142a4565b613192565b84600081518110612a21577f4e487b7100000000000000000000000000000000000000000000000000000000600052603260045260246000fd5b60200260200101516040518363ffffffff1660e01b8152600401612a46929190614ed3565b602060405180830381600087803b158015612a6057600080fd5b505af1158015612a74573d6000803e3d6000fd5b505050506040513d601f19601f82011682018060405250810190612a98919061469a565b612acb577f4e487b7100000000000000000000000000000000000000000000000000000000600052600160045260246000fd5b612b1782878780806020026020016040519081016040528093929190818152602001838360200280828437600081840152601f19601f820116905080830192505050505050508661333d565b81600081518110612b51577f4e487b7100000000000000000000000000000000000000000000000000000000600052603260045260246000fd5b6020026020010151341115612bb757612bb63383600081518110612b9e577f4e487b7100000000000000000000000000000000000000000000000000000000600052603260045260246000fd5b602002602001015134612bb191906153f3565b612cf7565b5b5095945050505050565b6000808473ffffffffffffffffffffffffffffffffffffffff1663a9059cbb8585604051602401612bf3929190614ed3565b6040516020818303038152906040529060e01b6020820180517bffffffffffffffffffffffffffffffffffffffffffffffffffffffff8381831617835250505050604051612c419190614d90565b6000604051808303816000865af19150503d8060008114612c7e576040519150601f19603f3d011682016040523d82523d6000602084013e612c83565b606091505b5091509150818015612cb15750600081511480612cb0575080806020019051810190612caf919061469a565b5b5b612cf0576040517f08c379a0000000000000000000000000000000000000000000000000000000008152600401612ce79061511e565b60405180910390fd5b5050505050565b60008273ffffffffffffffffffffffffffffffffffffffff1682600067ffffffffffffffff811115612d52577f4e487b7100000000000000000000000000000000000000000000000000000000600052604160045260246000fd5b6040519080825280601f01601f191660200182016040528015612d845781602001600182028036833780820191505090505b50604051612d929190614d90565b60006040518083038185875af1925050503d8060008114612dcf576040519150601f19603f3d011682016040523d82523d6000602084013e612dd4565b606091505b5050905080612e18576040517f08c379a0000000000000000000000000000000000000000000000000000000008152600401612e0f90614fde565b60405180910390fd5b505050565b6000808411612e61576040517f08c379a0000000000000000000000000000000000000000000000000000000008152600401612e589061515e565b60405180910390fd5b600083118015612e715750600082115b612eb0576040517f08c379a0000000000000000000000000000000000000000000000000000000008152600401612ea79061507e565b60405180910390fd5b6000612ec76103e586613dae90919063ffffffff16565b90506000612ede8483613dae90919063ffffffff16565b90506000612f0983612efb6103e889613dae90919063ffffffff16565b613e1b90919063ffffffff16565b90508082612f179190615368565b93505050509392505050565b6060600282511015612f6a576040517f08c379a0000000000000000000000000000000000000000000000000000000008152600401612f619061505e565b60405180910390fd5b815167ffffffffffffffff811115612fab577f4e487b7100000000000000000000000000000000000000000000000000000000600052604160045260246000fd5b604051908082528060200260200182016040528015612fd95781602001602082028036833780820191505090505b5090508281600081518110613017577f4e487b7100000000000000000000000000000000000000000000000000000000600052603260045260246000fd5b60200260200101818152505060005b6001835161303491906153f3565b81101561318a576000806130d58786858151811061307b577f4e487b7100000000000000000000000000000000000000000000000000000000600052603260045260246000fd5b6020026020010151876001876130919190615312565b815181106130c8577f4e487b7100000000000000000000000000000000000000000000000000000000600052603260045260246000fd5b6020026020010151613e74565b91509150613124848481518110613115577f4e487b7100000000000000000000000000000000000000000000000000000000600052603260045260246000fd5b60200260200101518383612e1d565b846001856131329190615312565b81518110613169577f4e487b7100000000000000000000000000000000000000000000000000000000600052603260045260246000fd5b602002602001018181525050505080806131829061553e565b915050613026565b509392505050565b60008060006131a1858561398d565b915091508582826040516020016131b9929190614d64565b604051602081830303815290604052805190602001206040516020016131e0929190614da7565b6040516020818303038152906040528051906020012060601c925050509392505050565b6000808573ffffffffffffffffffffffffffffffffffffffff166323b872dd86868660405160240161323893929190614e2d565b6040516020818303038152906040529060e01b6020820180517bffffffffffffffffffffffffffffffffffffffffffffffffffffffff83818316178352505050506040516132869190614d90565b6000604051808303816000865af19150503d80600081146132c3576040519150601f19603f3d011682016040523d82523d6000602084013e6132c8565b606091505b50915091508180156132f657506000815114806132f55750808060200190518101906132f4919061469a565b5b5b613335576040517f08c379a000000000000000000000000000000000000000000000000000000000815260040161332c90614fbe565b60405180910390fd5b505050505050565b60005b6001835161334e91906153f3565b81101561364e57600080848381518110613391577f4e487b7100000000000000000000000000000000000000000000000000000000600052603260045260246000fd5b6020026020010151856001856133a79190615312565b815181106133de577f4e487b7100000000000000000000000000000000000000000000000000000000600052603260045260246000fd5b60200260200101519150915060006133f6838361398d565b5090506000876001866134099190615312565b81518110613440577f4e487b7100000000000000000000000000000000000000000000000000000000600052603260045260246000fd5b602002602001015190506000808373ffffffffffffffffffffffffffffffffffffffff168673ffffffffffffffffffffffffffffffffffffffff16146134885782600061348c565b6000835b91509150600060028a516134a091906153f3565b88106134ac5788613524565b6135237f0000000000000000000000000000000000000000000000000000000000000000878c60028c6134df9190615312565b81518110613516577f4e487b7100000000000000000000000000000000000000000000000000000000600052603260045260246000fd5b6020026020010151613192565b5b90506135517f00000000000000000000000000000000000000000000000000000000000000008888613192565b73ffffffffffffffffffffffffffffffffffffffff1663022c0d9f848484600067ffffffffffffffff8111156135b0577f4e487b7100000000000000000000000000000000000000000000000000000000600052604160045260246000fd5b6040519080825280601f01601f1916602001820160405280156135e25781602001600182028036833780820191505090505b506040518563ffffffff1660e01b815260040161360294939291906151c2565b600060405180830381600087803b15801561361c57600080fd5b505af1158015613630573d6000803e3d6000fd5b505050505050505050505080806136469061553e565b915050613340565b50505050565b606060028251101561369b576040517f08c379a00000000000000000000000000000000000000000000000000000000081526004016136929061505e565b60405180910390fd5b815167ffffffffffffffff8111156136dc577f4e487b7100000000000000000000000000000000000000000000000000000000600052604160045260246000fd5b60405190808252806020026020018201604052801561370a5781602001602082028036833780820191505090505b50905082816001835161371d91906153f3565b81518110613754577f4e487b7100000000000000000000000000000000000000000000000000000000600052603260045260246000fd5b60200260200101818152505060006001835161377091906153f3565b90505b60008111156138cb57600080613816878660018661379191906153f3565b815181106137c8577f4e487b7100000000000000000000000000000000000000000000000000000000600052603260045260246000fd5b6020026020010151878681518110613809577f4e487b7100000000000000000000000000000000000000000000000000000000600052603260045260246000fd5b6020026020010151613e74565b91509150613865848481518110613856577f4e487b7100000000000000000000000000000000000000000000000000000000600052603260045260246000fd5b60200260200101518383613f86565b8460018561387391906153f3565b815181106138aa577f4e487b7100000000000000000000000000000000000000000000000000000000600052603260045260246000fd5b602002602001018181525050505080806138c3906154e3565b915050613773565b509392505050565b6000808411613917576040517f08c379a000000000000000000000000000000000000000000000000000000000815260040161390e9061509e565b60405180910390fd5b6000831180156139275750600082115b613966576040517f08c379a000000000000000000000000000000000000000000000000000000000815260040161395d9061507e565b60405180910390fd5b8261397a8386613dae90919063ffffffff16565b6139849190615368565b90509392505050565b6000808273ffffffffffffffffffffffffffffffffffffffff168473ffffffffffffffffffffffffffffffffffffffff1614156139ff576040517f08c379a00000000000000000000000000000000000000000000000000000000081526004016139f690614ffe565b60405180910390fd5b8273ffffffffffffffffffffffffffffffffffffffff168473ffffffffffffffffffffffffffffffffffffffff1610613a39578284613a3c565b83835b8092508193505050600073ffffffffffffffffffffffffffffffffffffffff168273ffffffffffffffffffffffffffffffffffffffff161415613ab4576040517f08c379a0000000000000000000000000000000000000000000000000000000008152600401613aab9061513e565b60405180910390fd5b9250929050565b600080600073ffffffffffffffffffffffffffffffffffffffff167f000000000000000000000000000000000000000000000000000000000000000073ffffffffffffffffffffffffffffffffffffffff1663e6a439058a8a6040518363ffffffff1660e01b8152600401613b31929190614e04565b60206040518083038186803b158015613b4957600080fd5b505afa158015613b5d573d6000803e3d6000fd5b505050506040513d601f19601f82011682018060405250810190613b8191906142cd565b73ffffffffffffffffffffffffffffffffffffffff161415613c4c577f000000000000000000000000000000000000000000000000000000000000000073ffffffffffffffffffffffffffffffffffffffff1663c9c6539689896040518363ffffffff1660e01b8152600401613bf8929190614e04565b602060405180830381600087803b158015613c1257600080fd5b505af1158015613c26573d6000803e3d6000fd5b505050506040513d601f19601f82011682018060405250810190613c4a91906142cd565b505b600080613c7a7f00000000000000000000000000000000000000000000000000000000000000008b8b613e74565b91509150600082148015613c8e5750600081145b15613ca25787878094508195505050613da1565b6000613caf8984846138d3565b9050878111613d0a5785811015613cfb576040517f08c379a0000000000000000000000000000000000000000000000000000000008152600401613cf29061501e565b60405180910390fd5b88818095508196505050613d9f565b6000613d178984866138d3565b905089811115613d50577f4e487b7100000000000000000000000000000000000000000000000000000000600052600160045260246000fd5b87811015613d93576040517f08c379a0000000000000000000000000000000000000000000000000000000008152600401613d8a906150de565b60405180910390fd5b80898096508197505050505b505b5050965096945050505050565b600080821480613dd6575082828385613dc79190615399565b925082613dd49190615368565b145b613e15576040517f08c379a0000000000000000000000000000000000000000000000000000000008152600401613e0c90614f3e565b60405180910390fd5b92915050565b6000828284613e2a9190615312565b9150811015613e6e576040517f08c379a0000000000000000000000000000000000000000000000000000000008152600401613e6590614f9e565b60405180910390fd5b92915050565b6000806000613e83858561398d565b509050600080613e94888888613192565b73ffffffffffffffffffffffffffffffffffffffff16630902f1ac6040518163ffffffff1660e01b815260040160606040518083038186803b158015613ed957600080fd5b505afa158015613eed573d6000803e3d6000fd5b505050506040513d601f19601f82011682018060405250810190613f1191906146c3565b506dffffffffffffffffffffffffffff1691506dffffffffffffffffffffffffffff1691508273ffffffffffffffffffffffffffffffffffffffff168773ffffffffffffffffffffffffffffffffffffffff1614613f70578082613f73565b81815b8095508196505050505050935093915050565b6000808411613fca576040517f08c379a0000000000000000000000000000000000000000000000000000000008152600401613fc190614f7e565b60405180910390fd5b600083118015613fda5750600082115b614019576040517f08c379a00000000000000000000000000000000000000000000000000000000081526004016140109061507e565b60405180910390fd5b60006140426103e86140348787613dae90919063ffffffff16565b613dae90919063ffffffff16565b9050600061406d6103e561405f888761409990919063ffffffff16565b613dae90919063ffffffff16565b905061408e600182846140809190615368565b613e1b90919063ffffffff16565b925050509392505050565b60008282846140a891906153f3565b91508111156140ec576040517f08c379a00000000000000000000000000000000000000000000000000000000081526004016140e390614f1e565b60405180910390fd5b92915050565b60006141056141008461526a565b615245565b9050808382526020820190508285602086028201111561412457600080fd5b60005b85811015614154578161413a888261415e565b845260208401935060208301925050600181019050614127565b5050509392505050565b60008135905061416d81615b85565b92915050565b60008151905061418281615b85565b92915050565b60008083601f84011261419a57600080fd5b8235905067ffffffffffffffff8111156141b357600080fd5b6020830191508360208202830111156141cb57600080fd5b9250929050565b600082601f8301126141e357600080fd5b81356141f38482602086016140f2565b91505092915050565b60008135905061420b81615b9c565b92915050565b60008151905061422081615b9c565b92915050565b60008135905061423581615bb3565b92915050565b60008151905061424a81615bca565b92915050565b60008135905061425f81615be1565b92915050565b60008151905061427481615be1565b92915050565b60008151905061428981615bf8565b92915050565b60008135905061429e81615c0f565b92915050565b6000602082840312156142b657600080fd5b60006142c48482850161415e565b91505092915050565b6000602082840312156142df57600080fd5b60006142ed84828501614173565b91505092915050565b600080600080600080600060e0888a03121561431157600080fd5b600061431f8a828b0161415e565b97505060206143308a828b0161415e565b96505060406143418a828b01614250565b95505060606143528a828b01614250565b94505060806143638a828b01614250565b93505060a06143748a828b0161415e565b92505060c06143858a828b01614250565b91505092959891949750929550565b60008060008060008060008060008060006101608c8e0312156143b657600080fd5b60006143c48e828f0161415e565b9b505060206143d58e828f0161415e565b9a505060406143e68e828f01614250565b99505060606143f78e828f01614250565b98505060806144088e828f01614250565b97505060a06144198e828f0161415e565b96505060c061442a8e828f01614250565b95505060e061443b8e828f016141fc565b94505061010061444d8e828f0161428f565b93505061012061445f8e828f01614226565b9250506101406144718e828f01614226565b9150509295989b509295989b9093969950565b600080600080600080600080610100898b0312156144a157600080fd5b60006144af8b828c0161415e565b98505060206144c08b828c0161415e565b97505060406144d18b828c01614250565b96505060606144e28b828c01614250565b95505060806144f38b828c01614250565b94505060a06145048b828c01614250565b93505060c06145158b828c0161415e565b92505060e06145268b828c01614250565b9150509295985092959890939650565b60008060008060008060c0878903121561454f57600080fd5b600061455d89828a0161415e565b965050602061456e89828a01614250565b955050604061457f89828a01614250565b945050606061459089828a01614250565b93505060806145a189828a0161415e565b92505060a06145b289828a01614250565b9150509295509295509295565b6000806000806000806000806000806101408b8d0312156145df57600080fd5b60006145ed8d828e0161415e565b9a505060206145fe8d828e01614250565b995050604061460f8d828e01614250565b98505060606146208d828e01614250565b97505060806146318d828e0161415e565b96505060a06146428d828e01614250565b95505060c06146538d828e016141fc565b94505060e06146648d828e0161428f565b9350506101006146768d828e01614226565b9250506101206146888d828e01614226565b9150509295989b9194979a5092959850565b6000602082840312156146ac57600080fd5b60006146ba84828501614211565b91505092915050565b6000806000606084860312156146d857600080fd5b60006146e68682870161423b565b93505060206146f78682870161423b565b92505060406147088682870161427a565b9150509250925092565b60006020828403121561472457600080fd5b600061473284828501614265565b91505092915050565b60008060008060006080868803121561475357600080fd5b600061476188828901614250565b955050602086013567ffffffffffffffff81111561477e57600080fd5b61478a88828901614188565b9450945050604061479d8882890161415e565b92505060606147ae88828901614250565b9150509295509295909350565b600080604083850312156147ce57600080fd5b60006147dc85828601614250565b925050602083013567ffffffffffffffff8111156147f957600080fd5b614805858286016141d2565b9150509250929050565b6000806040838503121561482257600080fd5b600061483085828601614265565b925050602061484185828601614265565b9150509250929050565b60008060008060008060a0878903121561486457600080fd5b600061487289828a01614250565b965050602061488389828a01614250565b955050604087013567ffffffffffffffff8111156148a057600080fd5b6148ac89828a01614188565b945094505060606148bf89828a0161415e565b92505060806148d089828a01614250565b9150509295509295509295565b6000806000606084860312156148f257600080fd5b600061490086828701614250565b935050602061491186828701614250565b925050604061492286828701614250565b9150509250925092565b60006149388383614d37565b60208301905092915050565b61494d81615427565b82525050565b61496461495f82615427565b615587565b82525050565b6000614975826152a6565b61497f81856152c9565b935061498a83615296565b8060005b838110156149bb5781516149a2888261492c565b97506149ad836152bc565b92505060018101905061498e565b5085935050505092915050565b6149d181615445565b82525050565b6149e86149e382615445565b615599565b82525050565b60006149f9826152b1565b614a0381856152da565b9350614a138185602086016154b0565b614a1c81615642565b840191505092915050565b6000614a32826152b1565b614a3c81856152eb565b9350614a4c8185602086016154b0565b80840191505092915050565b6000614a656015836152f6565b9150614a7082615660565b602082019050919050565b6000614a886014836152f6565b9150614a9382615689565b602082019050919050565b6000614aab6014836152f6565b9150614ab6826156b2565b602082019050919050565b6000614ace602c836152f6565b9150614ad9826156db565b604082019050919050565b6000614af16014836152f6565b9150614afc8261572a565b602082019050919050565b6000614b146031836152f6565b9150614b1f82615753565b604082019050919050565b6000614b376034836152f6565b9150614b42826157a2565b604082019050919050565b6000614b5a6025836152f6565b9150614b65826157f1565b604082019050919050565b6000614b7d6026836152f6565b9150614b8882615840565b604082019050919050565b6000614ba0601d836152f6565b9150614bab8261588f565b602082019050919050565b6000614bc3602083615307565b9150614bce826158b8565b602082019050919050565b6000614be6601e836152f6565b9150614bf1826158e1565b602082019050919050565b6000614c096028836152f6565b9150614c148261590a565b604082019050919050565b6000614c2c600183615307565b9150614c3782615959565b600182019050919050565b6000614c4f6025836152f6565b9150614c5a82615982565b604082019050919050565b6000614c726027836152f6565b9150614c7d826159d1565b604082019050919050565b6000614c956026836152f6565b9150614ca082615a20565b604082019050919050565b6000614cb8602b836152f6565b9150614cc382615a6f565b604082019050919050565b6000614cdb602d836152f6565b9150614ce682615abe565b604082019050919050565b6000614cfe601e836152f6565b9150614d0982615b0d565b602082019050919050565b6000614d21602b836152f6565b9150614d2c82615b36565b604082019050919050565b614d4081615489565b82525050565b614d4f81615489565b82525050565b614d5e816154a3565b82525050565b6000614d708285614953565b601482019150614d808284614953565b6014820191508190509392505050565b6000614d9c8284614a27565b915081905092915050565b6000614db282614c1f565b9150614dbe8285614953565b601482019150614dce82846149d7565b602082019150614ddd82614bb6565b91508190509392505050565b6000602082019050614dfe6000830184614944565b92915050565b6000604082019050614e196000830185614944565b614e266020830184614944565b9392505050565b6000606082019050614e426000830186614944565b614e4f6020830185614944565b614e5c6040830184614d46565b949350505050565b600060e082019050614e79600083018a614944565b614e866020830189614944565b614e936040830188614d46565b614ea06060830187614d46565b614ead6080830186614d55565b614eba60a08301856149c8565b614ec760c08301846149c8565b98975050505050505050565b6000604082019050614ee86000830185614944565b614ef56020830184614d46565b9392505050565b60006020820190508181036000830152614f16818461496a565b905092915050565b60006020820190508181036000830152614f3781614a58565b9050919050565b60006020820190508181036000830152614f5781614a7b565b9050919050565b60006020820190508181036000830152614f7781614a9e565b9050919050565b60006020820190508181036000830152614f9781614ac1565b9050919050565b60006020820190508181036000830152614fb781614ae4565b9050919050565b60006020820190508181036000830152614fd781614b07565b9050919050565b60006020820190508181036000830152614ff781614b2a565b9050919050565b6000602082019050818103600083015261501781614b4d565b9050919050565b6000602082019050818103600083015261503781614b70565b9050919050565b6000602082019050818103600083015261505781614b93565b9050919050565b6000602082019050818103600083015261507781614bd9565b9050919050565b6000602082019050818103600083015261509781614bfc565b9050919050565b600060208201905081810360008301526150b781614c42565b9050919050565b600060208201905081810360008301526150d781614c65565b9050919050565b600060208201905081810360008301526150f781614c88565b9050919050565b6000602082019050818103600083015261511781614cab565b9050919050565b6000602082019050818103600083015261513781614cce565b9050919050565b6000602082019050818103600083015261515781614cf1565b9050919050565b6000602082019050818103600083015261517781614d14565b9050919050565b60006020820190506151936000830184614d46565b92915050565b60006040820190506151ae6000830185614d46565b6151bb6020830184614d46565b9392505050565b60006080820190506151d76000830187614d46565b6151e46020830186614d46565b6151f16040830185614944565b818103606083015261520381846149ee565b905095945050505050565b60006060820190506152236000830186614d46565b6152306020830185614d46565b61523d6040830184614d46565b949350505050565b600061524f615260565b905061525b828261550d565b919050565b6000604051905090565b600067ffffffffffffffff82111561528557615284615613565b5b602082029050602081019050919050565b6000819050602082019050919050565b600081519050919050565b600081519050919050565b6000602082019050919050565b600082825260208201905092915050565b600082825260208201905092915050565b600081905092915050565b600082825260208201905092915050565b600081905092915050565b600061531d82615489565b915061532883615489565b9250827fffffffffffffffffffffffffffffffffffffffffffffffffffffffffffffffff0382111561535d5761535c6155b5565b5b828201905092915050565b600061537382615489565b915061537e83615489565b92508261538e5761538d6155e4565b5b828204905092915050565b60006153a482615489565b91506153af83615489565b9250817fffffffffffffffffffffffffffffffffffffffffffffffffffffffffffffffff04831182151516156153e8576153e76155b5565b5b828202905092915050565b60006153fe82615489565b915061540983615489565b92508282101561541c5761541b6155b5565b5b828203905092915050565b600061543282615469565b9050919050565b60008115159050919050565b6000819050919050565b60006dffffffffffffffffffffffffffff82169050919050565b600073ffffffffffffffffffffffffffffffffffffffff82169050919050565b6000819050919050565b600063ffffffff82169050919050565b600060ff82169050919050565b60005b838110156154ce5780820151818401526020810190506154b3565b838111156154dd576000848401525b50505050565b60006154ee82615489565b91506000821415615502576155016155b5565b5b600182039050919050565b61551682615642565b810181811067ffffffffffffffff8211171561553557615534615613565b5b80604052505050565b600061554982615489565b91507fffffffffffffffffffffffffffffffffffffffffffffffffffffffffffffffff82141561557c5761557b6155b5565b5b600182019050919050565b6000615592826155a3565b9050919050565b6000819050919050565b60006155ae82615653565b9050919050565b7f4e487b7100000000000000000000000000000000000000000000000000000000600052601160045260246000fd5b7f4e487b7100000000000000000000000000000000000000000000000000000000600052601260045260246000fd5b7f4e487b7100000000000000000000000000000000000000000000000000000000600052604160045260246000fd5b6000601f19601f8301169050919050565b60008160601b9050919050565b7f64732d6d6174682d7375622d756e646572666c6f770000000000000000000000600082015250565b7f64732d6d6174682d6d756c2d6f766572666c6f77000000000000000000000000600082015250565b7f59616d5632526f757465723a2045585049524544000000000000000000000000600082015250565b7f556e697377617056324c6962726172793a20494e53554646494349454e545f4f60008201527f55545055545f414d4f554e540000000000000000000000000000000000000000602082015250565b7f64732d6d6174682d6164642d6f766572666c6f77000000000000000000000000600082015250565b7f5472616e7366657248656c7065723a3a7472616e7366657246726f6d3a20747260008201527f616e7366657246726f6d206661696c6564000000000000000000000000000000602082015250565b7f5472616e7366657248656c7065723a3a736166655472616e736665724554483a60008201527f20455448207472616e73666572206661696c6564000000000000000000000000602082015250565b7f556e697377617056324c6962726172793a204944454e544943414c5f4144445260008201527f4553534553000000000000000000000000000000000000000000000000000000602082015250565b7f556e69737761705632526f757465723a20494e53554646494349454e545f425f60008201527f414d4f554e540000000000000000000000000000000000000000000000000000602082015250565b7f556e69737761705632526f757465723a20494e56414c49445f50415448000000600082015250565b7f96e8ac4277198ff8b6f785478aa9a39f403cb768dd02cbee326c3e7da348845f600082015250565b7f556e697377617056324c6962726172793a20494e56414c49445f504154480000600082015250565b7f556e697377617056324c6962726172793a20494e53554646494349454e545f4c60008201527f4951554944495459000000000000000000000000000000000000000000000000602082015250565b7fff00000000000000000000000000000000000000000000000000000000000000600082015250565b7f556e697377617056324c6962726172793a20494e53554646494349454e545f4160008201527f4d4f554e54000000000000000000000000000000000000000000000000000000602082015250565b7f556e69737761705632526f757465723a204558434553534956455f494e50555460008201527f5f414d4f554e5400000000000000000000000000000000000000000000000000602082015250565b7f556e69737761705632526f757465723a20494e53554646494349454e545f415f60008201527f414d4f554e540000000000000000000000000000000000000000000000000000602082015250565b7f556e69737761705632526f757465723a20494e53554646494349454e545f4f5560008201527f545055545f414d4f554e54000000000000000000000000000000000000000000602082015250565b7f5472616e7366657248656c7065723a3a736166655472616e736665723a20747260008201527f616e73666572206661696c656400000000000000000000000000000000000000602082015250565b7f556e697377617056324c6962726172793a205a45524f5f414444524553530000600082015250565b7f556e697377617056324c6962726172793a20494e53554646494349454e545f4960008201527f4e5055545f414d4f554e54000000000000000000000000000000000000000000602082015250565b615b8e81615427565b8114615b9957600080fd5b50565b615ba581615439565b8114615bb057600080fd5b50565b615bbc81615445565b8114615bc757600080fd5b50565b615bd38161544f565b8114615bde57600080fd5b50565b615bea81615489565b8114615bf557600080fd5b50565b615c0181615493565b8114615c0c57600080fd5b50565b615c18816154a3565b8114615c2357600080fd5b5056fea2646970667358221220515a27e9e105ecb33a5b7f9330609dde673cc6facf867393e2fd41d7b270124e64736f6c63430008040033",
  "linkReferences": {},
  "deployedLinkReferences": {}
}