{
  "contractName": "YamswapPair",
  "abi": [
    {
      "inputs": [],
      "payable": false,
      "stateMutability": "nonpayable",
      "type": "constructor"
    },
    {
      "anonymous": false,
      "inputs": [
        {
          "indexed": true,
          "internalType": "address",
          "name": "sender",
          "type": "address"
        },
        {
          "indexed": false,
          "internalType": "uint256",
          "name": "amount0In",
          "type": "uint256"
        },
        {
          "indexed": false,
          "internalType": "uint256",
          "name": "amount1In",
          "type": "uint256"
        },
        {
          "indexed": false,
          "internalType": "uint256",
          "name": "amount0Out",
          "type": "uint256"
        },
        {
          "indexed": false,
          "internalType": "uint256",
          "name": "amount1Out",
          "type": "uint256"
        },
        {
          "indexed": true,
          "internalType": "address",
          "name": "to",
          "type": "address"
        }
      ],
      "name": "Swap",
      "type": "event"
    },
    {
      "anonymous": false,
      "inputs": [
        {
          "indexed": false,
          "internalType": "uint112",
          "name": "reserve0",
          "type": "uint112"
        },
        {
          "indexed": false,
          "internalType": "uint112",
          "name": "reserve1",
          "type": "uint112"
        }
      ],
      "name": "Sync",
      "type": "event"
    },
    {
      "constant": true,
      "inputs": [],
      "name": "MINIMUM_LIQUIDITY",
      "outputs": [
        {
          "internalType": "uint256",
          "name": "",
          "type": "uint256"
        }
      ],
      "payable": false,
      "stateMutability": "view",
      "type": "function"
    },
    {
      "constant": true,
      "inputs": [],
      "name": "factory",
      "outputs": [
        {
          "internalType": "address",
          "name": "",
          "type": "address"
        }
      ],
      "payable": false,
      "stateMutability": "view",
      "type": "function"
    },
    {
      "constant": true,
      "inputs": [],
      "name": "kLast",
      "outputs": [
        {
          "internalType": "uint256",
          "name": "",
          "type": "uint256"
        }
      ],
      "payable": false,
      "stateMutability": "view",
      "type": "function"
    },
    {
      "constant": true,
      "inputs": [],
      "name": "price0CumulativeLast",
      "outputs": [
        {
          "internalType": "uint256",
          "name": "",
          "type": "uint256"
        }
      ],
      "payable": false,
      "stateMutability": "view",
      "type": "function"
    },
    {
      "constant": true,
      "inputs": [],
      "name": "price1CumulativeLast",
      "outputs": [
        {
          "internalType": "uint256",
          "name": "",
          "type": "uint256"
        }
      ],
      "payable": false,
      "stateMutability": "view",
      "type": "function"
    },
    {
      "constant": true,
      "inputs": [],
      "name": "token0",
      "outputs": [
        {
          "internalType": "address",
          "name": "",
          "type": "address"
        }
      ],
      "payable": false,
      "stateMutability": "view",
      "type": "function"
    },
    {
      "constant": true,
      "inputs": [],
      "name": "token1",
      "outputs": [
        {
          "internalType": "address",
          "name": "",
          "type": "address"
        }
      ],
      "payable": false,
      "stateMutability": "view",
      "type": "function"
    },
    {
      "constant": true,
      "inputs": [],
      "name": "getReserves",
      "outputs": [
        {
          "internalType": "uint112",
          "name": "_reserve0",
          "type": "uint112"
        },
        {
          "internalType": "uint112",
          "name": "_reserve1",
          "type": "uint112"
        },
        {
          "internalType": "uint32",
          "name": "_blockTimestampLast",
          "type": "uint32"
        }
      ],
      "payable": false,
      "stateMutability": "view",
      "type": "function"
    },
    {
      "constant": false,
      "inputs": [
        {
          "internalType": "address",
          "name": "_token0",
          "type": "address"
        },
        {
          "internalType": "address",
          "name": "_token1",
          "type": "address"
        }
      ],
      "name": "initialize",
      "outputs": [],
      "payable": false,
      "stateMutability": "nonpayable",
      "type": "function"
    },
    {
      "constant": false,
      "inputs": [
        {
          "internalType": "uint256",
          "name": "amount0Out",
          "type": "uint256"
        },
        {
          "internalType": "uint256",
          "name": "amount1Out",
          "type": "uint256"
        },
        {
          "internalType": "address",
          "name": "to",
          "type": "address"
        },
        {
          "internalType": "bytes",
          "name": "data",
          "type": "bytes"
        }
      ],
      "name": "swap",
      "outputs": [],
      "payable": false,
      "stateMutability": "nonpayable",
      "type": "function"
    }
  ],
  "bytecode": "0x6080604052600160075534801561001557600080fd5b50336000806101000a81548173ffffffffffffffffffffffffffffffffffffffff021916908373ffffffffffffffffffffffffffffffffffffffff1602179055506115fc806100656000396000f3fe608060405234801561001057600080fd5b506004361061009e5760003560e01c80635a3d5493116100665780635a3d5493146102945780637464fc3d146102b2578063ba9a7a56146102d0578063c45a0155146102ee578063d21220a7146103385761009e565b8063022c0d9f146100a35780630902f1ac146101505780630dfe1681146101c8578063485cc955146102125780635909c0d514610276575b600080fd5b61014e600480360360808110156100b957600080fd5b810190808035906020019092919080359060200190929190803573ffffffffffffffffffffffffffffffffffffffff1690602001909291908035906020019064010000000081111561010a57600080fd5b82018360208201111561011c57600080fd5b8035906020019184600183028401116401000000008311171561013e57600080fd5b9091929391929390505050610382565b005b610158610be6565b60405180846dffffffffffffffffffffffffffff166dffffffffffffffffffffffffffff168152602001836dffffffffffffffffffffffffffff166dffffffffffffffffffffffffffff1681526020018263ffffffff1663ffffffff168152602001935050505060405180910390f35b6101d0610c43565b604051808273ffffffffffffffffffffffffffffffffffffffff1673ffffffffffffffffffffffffffffffffffffffff16815260200191505060405180910390f35b6102746004803603604081101561022857600080fd5b81019080803573ffffffffffffffffffffffffffffffffffffffff169060200190929190803573ffffffffffffffffffffffffffffffffffffffff169060200190929190505050610c69565b005b61027e610db1565b6040518082815260200191505060405180910390f35b61029c610db7565b6040518082815260200191505060405180910390f35b6102ba610dbd565b6040518082815260200191505060405180910390f35b6102d8610dc3565b6040518082815260200191505060405180910390f35b6102f6610dc9565b604051808273ffffffffffffffffffffffffffffffffffffffff1673ffffffffffffffffffffffffffffffffffffffff16815260200191505060405180910390f35b610340610dee565b604051808273ffffffffffffffffffffffffffffffffffffffff1673ffffffffffffffffffffffffffffffffffffffff16815260200191505060405180910390f35b6001600754146103fa576040517f08c379a000000000000000000000000000000000000000000000000000000000815260040180806020018281038252600f8152602001807f59616d737761703a204c4f434b4544000000000000000000000000000000000081525060200191505060405180910390fd5b600060078190555060008511806104115750600084115b610466576040517f08c379a00000000000000000000000000000000000000000000000000000000081526004018080602001828103825260238152602001806115a56023913960400191505060405180910390fd5b600080610471610be6565b5091509150816dffffffffffffffffffffffffffff16871080156104a45750806dffffffffffffffffffffffffffff1686105b610516576040517f08c379a000000000000000000000000000000000000000000000000000000000815260040180806020018281038252601f8152602001807f59616d737761703a20494e53554646494349454e545f4c49515549444954590081525060200191505060405180910390fd5b6000806000600160009054906101000a900473ffffffffffffffffffffffffffffffffffffffff1690506000600260009054906101000a900473ffffffffffffffffffffffffffffffffffffffff1690508173ffffffffffffffffffffffffffffffffffffffff168973ffffffffffffffffffffffffffffffffffffffff16141580156105f15750600260009054906101000a900473ffffffffffffffffffffffffffffffffffffffff1673ffffffffffffffffffffffffffffffffffffffff168973ffffffffffffffffffffffffffffffffffffffff1614155b610663576040517f08c379a00000000000000000000000000000000000000000000000000000000081526004018080602001828103825260138152602001807f59616d737761703a20494e56414c49445f544f0000000000000000000000000081525060200191505060405180910390fd5b60008b111561067857610677828a8d610e14565b5b60008a111561068d5761068c818a8c610e14565b5b6000888890501115610775578873ffffffffffffffffffffffffffffffffffffffff166390165035338d8d8c8c6040518663ffffffff1660e01b8152600401808673ffffffffffffffffffffffffffffffffffffffff1673ffffffffffffffffffffffffffffffffffffffff168152602001858152602001848152602001806020018281038252848482818152602001925080828437600081840152601f19601f8201169050808301925050509650505050505050600060405180830381600087803b15801561075c57600080fd5b505af1158015610770573d6000803e3d6000fd5b505050505b8173ffffffffffffffffffffffffffffffffffffffff166370a08231306040518263ffffffff1660e01b8152600401808273ffffffffffffffffffffffffffffffffffffffff1673ffffffffffffffffffffffffffffffffffffffff16815260200191505060206040518083038186803b1580156107f257600080fd5b505afa158015610806573d6000803e3d6000fd5b505050506040513d602081101561081c57600080fd5b810190808051906020019092919050505093508073ffffffffffffffffffffffffffffffffffffffff166370a08231306040518263ffffffff1660e01b8152600401808273ffffffffffffffffffffffffffffffffffffffff1673ffffffffffffffffffffffffffffffffffffffff16815260200191505060206040518083038186803b1580156108ac57600080fd5b505afa1580156108c0573d6000803e3d6000fd5b505050506040513d60208110156108d657600080fd5b810190808051906020019092919050505092505050600089600360009054906101000a90046dffffffffffffffffffffffffffff166dffffffffffffffffffffffffffff1603831161092957600061093f565b89856dffffffffffffffffffffffffffff160383035b90506000896003600e9054906101000a90046dffffffffffffffffffffffffffff166dffffffffffffffffffffffffffff1603831161097f576000610995565b89856dffffffffffffffffffffffffffff160383035b905060008211806109a65750600081115b6109fb576040517f08c379a00000000000000000000000000000000000000000000000000000000081526004018080602001828103825260228152602001806115836022913960400191505060405180910390fd5b6000610a37610a1460038561106190919063ffffffff16565b610a296103e88861106190919063ffffffff16565b6110f690919063ffffffff16565b90506000610a75610a5260038561106190919063ffffffff16565b610a676103e88861106190919063ffffffff16565b6110f690919063ffffffff16565b9050610abf620f4240610ab1896dffffffffffffffffffffffffffff168b6dffffffffffffffffffffffffffff1661106190919063ffffffff16565b61106190919063ffffffff16565b610ad2828461106190919063ffffffff16565b1015610b46576040517f08c379a000000000000000000000000000000000000000000000000000000000815260040180806020018281038252600a8152602001807f59616d737761703a204b0000000000000000000000000000000000000000000081525060200191505060405180910390fd5b5050610b5484848888611179565b8873ffffffffffffffffffffffffffffffffffffffff163373ffffffffffffffffffffffffffffffffffffffff167fd78ad95fa46c994b6551d0da85fc275fe613ce37657fb8d5e3d130840159d82284848f8f6040518085815260200184815260200183815260200182815260200194505050505060405180910390a350505050505060016007819055505050505050565b6000806000600360009054906101000a90046dffffffffffffffffffffffffffff1692506003600e9054906101000a90046dffffffffffffffffffffffffffff1691506003601c9054906101000a900463ffffffff169050909192565b600160009054906101000a900473ffffffffffffffffffffffffffffffffffffffff1681565b6000809054906101000a900473ffffffffffffffffffffffffffffffffffffffff1673ffffffffffffffffffffffffffffffffffffffff163373ffffffffffffffffffffffffffffffffffffffff1614610d2b576040517f08c379a00000000000000000000000000000000000000000000000000000000081526004018080602001828103825260128152602001807f59616d737761703a20464f5242494444454e000000000000000000000000000081525060200191505060405180910390fd5b81600160006101000a81548173ffffffffffffffffffffffffffffffffffffffff021916908373ffffffffffffffffffffffffffffffffffffffff16021790555080600260006101000a81548173ffffffffffffffffffffffffffffffffffffffff021916908373ffffffffffffffffffffffffffffffffffffffff1602179055505050565b60045481565b60055481565b60065481565b6103e881565b6000809054906101000a900473ffffffffffffffffffffffffffffffffffffffff1681565b600260009054906101000a900473ffffffffffffffffffffffffffffffffffffffff1681565b600060608473ffffffffffffffffffffffffffffffffffffffff166040518060400160405280601a81526020017f7472616e7366657228616464726573732c2075696e7432353629000000000000815250805190602001208585604051602401808373ffffffffffffffffffffffffffffffffffffffff1673ffffffffffffffffffffffffffffffffffffffff16815260200182815260200192505050604051602081830303815290604052907bffffffffffffffffffffffffffffffffffffffffffffffffffffffff19166020820180517bffffffffffffffffffffffffffffffffffffffffffffffffffffffff83818316178352505050506040518082805190602001908083835b60208310610f415780518252602082019150602081019050602083039250610f1e565b6001836020036101000a0380198251168184511680821785525050505050509050019150506000604051808303816000865af19150503d8060008114610fa3576040519150601f19603f3d011682016040523d82523d6000602084013e610fa8565b606091505b5091509150818015610fe85750600081511480610fe75750808060200190516020811015610fd557600080fd5b81019080805190602001909291905050505b5b61105a576040517f08c379a00000000000000000000000000000000000000000000000000000000081526004018080602001828103825260188152602001807f59616d737761703a205452414e534645525f4641494c4544000000000000000081525060200191505060405180910390fd5b5050505050565b60008082148061107e575082828385029250828161107b57fe5b04145b6110f0576040517f08c379a00000000000000000000000000000000000000000000000000000000081526004018080602001828103825260148152602001807f64732d6d6174682d6d756c2d6f766572666c6f7700000000000000000000000081525060200191505060405180910390fd5b92915050565b6000828284039150811115611173576040517f08c379a00000000000000000000000000000000000000000000000000000000081526004018080602001828103825260158152602001807f64732d6d6174682d7375622d756e646572666c6f77000000000000000000000081525060200191505060405180910390fd5b92915050565b7fffffffffffffffffffffffffffffffffffffffffffffffffffffffffffffffff6dffffffffffffffffffffffffffff1684111580156111e957507fffffffffffffffffffffffffffffffffffffffffffffffffffffffffffffffff6dffffffffffffffffffffffffffff168311155b61125b576040517f08c379a00000000000000000000000000000000000000000000000000000000081526004018080602001828103825260118152602001807f59616d737761703a204f564552464c4f5700000000000000000000000000000081525060200191505060405180910390fd5b6000640100000000428161126b57fe5b06905060006003601c9054906101000a900463ffffffff168203905060008163ffffffff161180156112ae57506000846dffffffffffffffffffffffffffff1614155b80156112cb57506000836dffffffffffffffffffffffffffff1614155b156113ad578063ffffffff16611310856112e4866114f7565b7bffffffffffffffffffffffffffffffffffffffffffffffffffffffff1661152290919063ffffffff16565b7bffffffffffffffffffffffffffffffffffffffffffffffffffffffff16026004600082825401925050819055508063ffffffff1661137e84611352876114f7565b7bffffffffffffffffffffffffffffffffffffffffffffffffffffffff1661152290919063ffffffff16565b7bffffffffffffffffffffffffffffffffffffffffffffffffffffffff16026005600082825401925050819055505b85600360006101000a8154816dffffffffffffffffffffffffffff02191690836dffffffffffffffffffffffffffff160217905550846003600e6101000a8154816dffffffffffffffffffffffffffff02191690836dffffffffffffffffffffffffffff160217905550816003601c6101000a81548163ffffffff021916908363ffffffff1602179055507f1c411e9a96e071241c2f21f7726b17ae89e3cab4c78be50e062b03a9fffbbad1600360009054906101000a90046dffffffffffffffffffffffffffff166003600e9054906101000a90046dffffffffffffffffffffffffffff1660405180836dffffffffffffffffffffffffffff166dffffffffffffffffffffffffffff168152602001826dffffffffffffffffffffffffffff166dffffffffffffffffffffffffffff1681526020019250505060405180910390a1505050505050565b60006e010000000000000000000000000000826dffffffffffffffffffffffffffff16029050919050565b6000816dffffffffffffffffffffffffffff167bffffffffffffffffffffffffffffffffffffffffffffffffffffffff16837bffffffffffffffffffffffffffffffffffffffffffffffffffffffff168161157957fe5b0490509291505056fe59616d737761703a20494e53554646494349454e545f494e5055545f414d4f554e5459616d737761703a20494e53554646494349454e545f4f55545055545f414d4f554e54a265627a7a7231582067223fc43c669f06f0bcc99390125b8f3992df035b0bb0d27ef26333f4e01d9964736f6c63430005100032",
  "source": "/**\n * @program: yamswap-core\n * @description: \n * @author: a186r\n * @create: 2020-10-21\n **/\n\npragma solidity >=0.4.21 <0.7.0;\n\nimport \"./libraries/SafeMath.sol\";\nimport \"./libraries/UQ112x112.sol\";\nimport \"./interface/IERC20.sol\";\nimport \"./interface/IYamswapCallee.sol\";\n\ncontract YamswapPair {\n\n    using SafeMath for uint;\n    using UQ112x112 for uint224;\n\n    // 定义一个最低流动性\n    uint public constant MINIMUM_LIQUIDITY = 10**3;\n\n    bytes4 private constant SELECTOR = bytes4(keccak256(bytes('transfer(address, uint256)')));\n\n    address public factory;\n    address public token0;\n    address public token1;\n\n    uint112 private reserve0;           // token0的储量，可通过getReserves访问\n    uint112 private reserve1;           // token1的储量，可通过getReserves访问\n    uint32  private blockTimestampLast; // 使用单个存储插槽，可通过getReserves访问\n\n    uint public price0CumulativeLast;\n    uint public price1CumulativeLast;\n    uint public kLast;  // reserve0 * reserve1，AMM中的K值，截止最后一次提供流动性\n\n    uint private unlocked = 1;\n\n    // 防止重入攻击\n    modifier lock(){\n        require(unlocked == 1, 'Yamswap: LOCKED');\n        unlocked = 0;\n        _;\n        unlocked = 1;\n    }\n\n    function getReserves() public view returns (uint112 _reserve0, uint112 _reserve1, uint32 _blockTimestampLast) {\n        _reserve0 = reserve0;\n        _reserve1 = reserve1;\n        _blockTimestampLast = blockTimestampLast;\n    }\n\n    function _safeTransfer(address token, address to, uint value) private {\n        // abi.encodeWithSelector 允许通过函数的名称来调用函数\n        (bool success, bytes memory data) = token.call(abi.encodeWithSelector(SELECTOR, to, value));\n        require(success && (data.length == 0 || abi.decode(data, (bool))), 'Yamswap: TRANSFER_FAILED');\n    }\n\n    event Swap(\n        address indexed sender,\n        uint amount0In,\n        uint amount1In,\n        uint amount0Out,\n        uint amount1Out,\n        address indexed to\n    );\n\n    event Sync(uint112 reserve0, uint112 reserve1);\n\n    constructor() public {\n        factory = msg.sender;\n    }\n\n    // 部署时由工厂模式调用一次\n    function initialize(address _token0, address _token1) external {\n        require(msg.sender == factory, 'Yamswap: FORBIDDEN');\n        token0 = _token0;\n        token1 = _token1;\n    }\n\n    // 更新储备，并且在每个区块第一次调用时累计价格，这里涉及到时间加权的平均价格计算\n    function _update(uint balance0, uint balance1, uint112 _reserve0, uint112 _reserve1) private {\n        // 判断balance的值是否溢出\n        require(balance0 <= uint112(-1) && balance1 <= uint112(-1), 'Yamswap: OVERFLOW');\n        uint32 blockTimestamp = uint32(block.timestamp % 2**32);\n        uint32 timeElapsed = blockTimestamp - blockTimestampLast; // overflow is desired\n        if(timeElapsed > 0 && _reserve0 != 0 && _reserve1 != 0) {\n            price0CumulativeLast += uint(UQ112x112.encode(_reserve1).uqdiv(_reserve0)) * timeElapsed;\n            price1CumulativeLast += uint(UQ112x112.encode(_reserve0).uqdiv(_reserve1)) * timeElapsed;\n        }\n        reserve0 = uint112(balance0);\n        reserve1 = uint112(balance1);\n        blockTimestampLast = blockTimestamp;\n        emit Sync(reserve0, reserve1);\n    }\n\n    function swap(uint amount0Out, uint amount1Out, address to, bytes calldata data) external lock {\n        require(amount0Out > 0 || amount1Out > 0, 'Yamswap: INSUFFICIENT_OUTPUT_AMOUNT');\n        (uint112 _reserve0, uint112 _reserve1, ) = getReserves(); // 节约gas\n        require(amount0Out < _reserve0 && amount1Out < _reserve1, 'Yamswap: INSUFFICIENT_LIQUIDITY');\n\n        uint balance0;\n        uint balance1;\n\n        // 处理_token{0,1},避免了堆栈过深的错误\n        {\n            address _token0 = token0;\n            address _token1 = token1;\n            require(to != _token0 && to != token1, 'Yamswap: INVALID_TO');\n            if (amount0Out > 0) _safeTransfer(_token0, to, amount0Out);\n            if (amount1Out > 0) _safeTransfer(_token1, to, amount1Out);\n            if (data.length > 0) IYamswapCallee(to).yamswapCall(msg.sender, amount0Out, amount1Out, data);\n            balance0 = IERC20(_token0).balanceOf(address(this));\n            balance1 = IERC20(_token1).balanceOf(address(this));\n        }\n\n        uint amount0In = balance0 > reserve0 - amount0Out ? balance0 - (_reserve0 - amount0Out) : 0;\n        uint amount1In = balance1 > reserve1 - amount1Out ? balance1 - (_reserve1 - amount1Out) : 0;\n        require(amount0In > 0 || amount1In > 0, 'Yamswap: INSUFFICIENT_INPUT_AMOUNT');\n\n        // 存储更新后的的储备金，防止堆栈过深\n        {\n            uint balance0Adjusted = balance0.mul(1000).sub(amount0In.mul(3));\n            uint balance1Adjusted = balance1.mul(1000).sub(amount1In.mul(3));\n            require(balance0Adjusted.mul(balance1Adjusted) >= uint(_reserve0).mul(_reserve1).mul(1000**2), 'Yamswap: K');\n        }\n        _update(balance0, balance1, _reserve0, _reserve1);\n        emit Swap(msg.sender, amount0In, amount1In, amount0Out, amount1Out, to);\n    }\n\n}\n",
  "sourcePath": "/Users/a186r/dev/yamswap/yamswap-core/contracts/YamswapPair.sol",
  "compiler": {
    "name": "solc",
    "version": "0.5.16+commit.9c3226ce.Emscripten.clang"
  },
  "schemaVersion": "3.2.0",
  "updatedAt": "2020-11-12T09:45:44.459Z",
  "devdoc": {
    "methods": {}
  },
  "userdoc": {
    "methods": {}
  }
}